:100000000C9434000C943E000C943E000C943E0082
:100010000C943E000C943E000C943E000C943E0068
:100020000C943E000C943E000C943E000C943E0058
:100030000C943E000C943E000C943E000C943E0048
:100040000C943E000C943E000C943E000C943E0038
:100050000C943E000C943E000C943E000C943E0028
:100060000C943E000C943E0011241FBECFEFD8E04C
:10007000DEBFCDBF0E9490000C943B010C940000A9
:10008000282F207F30E0359527953595279525B980
:100090006115710511F490E401C090E59BB9EFE39F
:1000A000FFE13197F1F700C000006115710511F40F
:1000B00090E001C090E19BB9EFE3FFE13197F1F7E8
:1000C00000C000008F70880F880F85B96115710519
:1000D00011F480E401C080E58BB98FE39FE10197C3
:1000E000F1F700C00000672B11F480E001C080E14F
:1000F0008BB9EFE7FEE33197F1F700C000000895F8
:1001000061E070E00C944000CF93DF93EC018991A3
:10011000882319F00E948000FACFDF91CF910895D3
:100120008CE384B980E58AB92FEF89EF90E0215004
:1001300080409040E1F700C0000060E070E082E0A5
:100140000E94400060E070E088E20E94400060E0B1
:1001500070E08CE00E94400060E070E081E00E946E
:100160004000E12CF12C05E110E0C6E1D0E09AE07E
:10017000C92ED12C2FEFE21AF20A8CE3E816F10413
:1001800021F40F5F1F4FE12CF12C0C33110519F4F2
:10019000219600E010E0C831D10511F4C0E0D0E0B4
:1001A000CE01B6010E941301B82E80E3860F0E9493
:1001B000800080E38B0D0E9480008AE30E94800013
:1001C000C801B6010E941301B82E80E3860F0E9479
:1001D000800080E38B0D0E9480008AE30E948000F3
:1001E000C701B6010E941301B82E80E3860F0E945A
:1001F000800080E38B0D0E94800088E0A82EB12C47
:1002000060E070E080E10E94400091E0A91AB1082E
:10021000B9F72FEF83E099E2215080409040E1F759
:1002200000C00000A7CF97FB072E16F4009407D05C
:1002300077FD09D00E94270107FC05D03EF4909578
:1002400081959F4F0895709561957F4F0895AA1BE2
:10025000BB1B51E107C0AA1FBB1FA617B70710F0B1
:10026000A61BB70B881F991F5A95A9F780959095E3
:0A027000BC01CD010895F894FFCF02
:00000001FF
