:100000000C9434000C9449000C9449000C94490061
:100010000C9449000C9449000C9449000C9449003C
:100020000C9449000C9449000C9449000C9449002C
:100030000C9449000C9449000C9449000C9449001C
:100040000C9449000C9449000C9449000C9449000C
:100050000C9449000C9449000C9449000C944900FC
:100060000C9449000C94490011241FBECFEFD8E036
:10007000DEBFCDBF11E0A0E0B1E0E4EAF1E002C0F4
:1000800005900D92AC31B107D9F70E949F000C94F6
:10009000D0000C940000282F207F30E03595279564
:1000A0003595279525B96115710511F490E401C0C6
:1000B00090E59BB995E09A95F1F7000061157105FF
:1000C00011F490E001C090E19BB995E09A95F1F7A9
:1000D0000000982F9F70990F990F95B961157105C0
:1000E00011F490E401C090E59BB995E09A95F1F781
:1000F00000006115710511F490E001C090E19BB919
:1001000095EC9A95F1F70000813011F0823041F4BE
:10011000672B31F48FE39FE10197F1F700C00000F6
:100120000895CF93DF93EC018991882329F061E052
:1001300070E00E944B00F8CFDF91CF9108958CE3DF
:1001400084B980E58AB92FEF89EF90E02150804093
:100150009040E1F700C0000060E070E082E00E94A3
:100160004B0060E070E088E20E944B0060E070E0CD
:100170008CE00E944B0060E070E081E00E944B0048
:1001800080E091E00E94910060E070E080EC0E94CD
:100190004B008BE091E00E94910080E090E0089598
:0401A000F894FFCF01
:1001A40021402324255E262A28290059415921204B
:0C01B4005F5F5F5F205F5F5F5F5F0000C8
:00000001FF
